:020000040000fa
:080000000001040000000000f3
:020000040000fa
:100200000f852000009f20000001880000000000f2
:100210000a00070011000700000020000000e000b5
:10022000020032000000020000000000880102000d
:10023000000000000040da000000fe004440a90079
:10024000000020000000e000030032000000200059
:10025000a00188004440a80000000600201d2000e6
:10026000010020001500370062004000e0804800d7
:10027000910188009001ba0062004000e0804800cf
:10028000910188009002ba0062004000e0804800be
:100290000002eb006028e10004003a000059eb0086
:1002a0008301e900fdff3e00040037006128e10002
:1002b000010032000082eb00050007009101880078
:1002c0001001ba000200e000e7ff3a00000005005c
:1002d000910188008002780062004000e0804800c0
:1002e0003559ba008301e900080032002559ba00e7
:1002f0008301e900050032000400e000f4ff320051
:1003000015d9ba008301e900f1ff3a0000000600a8
:020000040000fa
:0200000401f009
:04000000ffff0000fe
:020000040000fa
:0200000401f009
:04000800ffff0000f6
:020000040000fa
:0200000401f009
:04000c00fdff0000f4
:020000040000fa
:0200000401f009
:04001000ffff0000ee
:020000040000fa
:0200000401f009
:04001800ffff0000e6
:020000040000fa
:10000800d4010000d4010000d4010000d401000094
:10001800d4010000d4010000d4010000d401000084
:10002800d4010000d4010000d4010000d401000074
:10003800d4010000d4010000d4010000d401000064
:10004800d4010000d4010000d4010000d401000054
:10005800d4010000d4010000d4010000d401000044
:10006800d4010000d4010000d4010000d401000034
:10007800d4010000d4010000d4010000d401000024
:10008800d4010000d4010000d4010000d401000014
:10009800d4010000d4010000d4010000d401000004
:1000a800d4010000d4010000d4010000d4010000f4
:1000b800d4010000d4010000d4010000d4010000e4
:1000c800d4010000d4010000d4010000d4010000d4
:1000d800d4010000d4010000d4010000d4010000c4
:1000e800d4010000d4010000d4010000d4010000b4
:0800f800d4010000d401000056
:020000040000fa
:10010800d4010000d4010000d4010000d401000093
:10011800d4010000d4010000d4010000d401000083
:10012800d4010000d4010000d4010000d401000073
:10013800d4010000d4010000d4010000d401000063
:10014800d4010000d4010000d4010000d401000053
:10015800d4010000d4010000d4010000d401000043
:10016800d4010000d4010000d4010000d401000033
:10017800d4010000d4010000d4010000d401000023
:10018800d4010000d4010000d4010000d401000013
:10019800d4010000d4010000d4010000d401000003
:1001a800d4010000d4010000d4010000d4010000f3
:1001b800d4010000d4010000d4010000d4010000e3
:1001c800d4010000d4010000d4010000d4010000d3
:1001d800d4010000d4010000d4010000d4010000c3
:1001e800d4010000d4010000d4010000d4010000b3
:0801f800d4010000d401000055
:020000040000fa
:100310000000fa00002020001020880000102000bb
:1003200070208800001020001021880000022000aa
:100330009020880000022000302188000002200068
:10034000a020880000022000402188000000eb006f
:100350008020880000082000202188000be4a800ed
:100360000bc4a800b14020009140780030cfb3000a
:1003700000c060000034a0000be4b7001fe4a80038
:100380001fc4a800f14120009140780030cfb30095
:1003900000c060000034a0001fe4b70001e4a80022
:0403a000ffff370024
:020000040000fa
:0403a4000000000055
:020000040000fa
:0403a8000000fe0053
:00000001FF
